{
  "contractName": "TodoList",
  "abi": [
    {
      "constant": true,
      "inputs": [],
      "name": "taskCount",
      "outputs": [
        {
          "name": "",
          "type": "uint256"
        }
      ],
      "payable": false,
      "stateMutability": "view",
      "type": "function"
    }
  ],
  "bytecode": "0x608060405260008055348015601357600080fd5b50609e806100226000396000f3fe608060405260043610603f576000357c0100000000000000000000000000000000000000000000000000000000900463ffffffff168063b6cb58a5146044575b600080fd5b348015604f57600080fd5b506056606c565b6040518082815260200191505060405180910390f35b6000548156fea165627a7a723058205403c101c1871d21399f9840463d6ff1f809250b2e4035a0ffa7fd9dff4605900029",
  "source": "pragma solidity ^0.5.0; \n\ncontract TodoList {\n    // Create a state variable to keep track of the number of tasks (these are written to the blockchain)\n    // access keyword \"public\" allows us to read the value 'taskCount' \n    uint public taskCount = 0;\n}",
  "sourcePath": "/Users/charles-nesmith-ii/Desktop/apps/blockchain/etherium_todo_list/contracts/TodoList.sol",
  "compiler": {
    "name": "solc",
    "version": "0.5.0+commit.1d4f565a.Emscripten.clang"
  },
  "schemaVersion": "3.4.16",
  "updatedAt": "2023-10-18T19:44:06.028Z",
  "networkType": "ethereum",
  "devdoc": {
    "methods": {}
  },
  "userdoc": {
    "methods": {}
  }
}